{
  "contractName": "IPR",
  "abi": [
    {
      "constant": true,
      "inputs": [
        {
          "name": "",
          "type": "uint256"
        }
      ],
      "name": "projects",
      "outputs": [
        {
          "name": "projectId",
          "type": "uint256"
        },
        {
          "name": "name",
          "type": "string"
        },
        {
          "name": "desc",
          "type": "string"
        },
        {
          "name": "owner",
          "type": "address"
        },
        {
          "name": "timestamp",
          "type": "uint256"
        },
        {
          "name": "parentId",
          "type": "uint256"
        }
      ],
      "payable": false,
      "stateMutability": "view",
      "type": "function"
    },
    {
      "constant": true,
      "inputs": [
        {
          "name": "",
          "type": "uint256"
        }
      ],
      "name": "projectIdIndex",
      "outputs": [
        {
          "name": "",
          "type": "uint256"
        }
      ],
      "payable": false,
      "stateMutability": "view",
      "type": "function"
    },
    {
      "constant": true,
      "inputs": [],
      "name": "getProjectsLength",
      "outputs": [
        {
          "name": "",
          "type": "uint256"
        }
      ],
      "payable": false,
      "stateMutability": "view",
      "type": "function"
    },
    {
      "constant": false,
      "inputs": [
        {
          "name": "_parentId",
          "type": "uint256"
        },
        {
          "name": "_name",
          "type": "string"
        },
        {
          "name": "_desc",
          "type": "string"
        }
      ],
      "name": "saveProject",
      "outputs": [
        {
          "name": "",
          "type": "uint256"
        }
      ],
      "payable": false,
      "stateMutability": "nonpayable",
      "type": "function"
    }
  ],
  "bytecode": "0x6060604052341561000f57600080fd5b6107c98061001e6000396000f300606060405260043610610062576000357c0100000000000000000000000000000000000000000000000000000000900463ffffffff168063107046bd14610067578063acda8898146101b7578063b5273a9914610274578063c6bdc0a2146102ab575b600080fd5b341561007257600080fd5b61008860048080359060200190919050506102d4565b6040518087815260200180602001806020018673ffffffffffffffffffffffffffffffffffffffff1673ffffffffffffffffffffffffffffffffffffffff168152602001858152602001848152602001838103835288818151815260200191508051906020019080838360005b838110156101105780820151818401526020810190506100f5565b50505050905090810190601f16801561013d5780820380516001836020036101000a031916815260200191505b50838103825287818151815260200191508051906020019080838360005b8381101561017657808201518184015260208101905061015b565b50505050905090810190601f1680156101a35780820380516001836020036101000a031916815260200191505b509850505050505050505060405180910390f35b34156101c257600080fd5b61025e600480803590602001909190803590602001908201803590602001908080601f0160208091040260200160405190810160405280939291908181526020018383808284378201915050505050509190803590602001908201803590602001908080601f0160208091040260200160405190810160405280939291908181526020018383808284378201915050505050509190505061046f565b6040518082815260200191505060405180910390f35b341561027f57600080fd5b61029560048080359060200190919050506105db565b6040518082815260200191505060405180910390f35b34156102b657600080fd5b6102be6105f3565b6040518082815260200191505060405180910390f35b6001818154811015156102e357fe5b9060005260206000209060060201600091509050806000015490806001018054600181600116156101000203166002900480601f0160208091040260200160405190810160405280929190818152602001828054600181600116156101000203166002900480156103955780601f1061036a57610100808354040283529160200191610395565b820191906000526020600020905b81548152906001019060200180831161037857829003601f168201915b505050505090806002018054600181600116156101000203166002900480601f0160208091040260200160405190810160405280929190818152602001828054600181600116156101000203166002900480156104335780601f1061040857610100808354040283529160200191610433565b820191906000526020600020905b81548152906001019060200180831161041657829003601f168201915b5050505050908060030160009054906101000a900473ffffffffffffffffffffffffffffffffffffffff16908060040154908060050154905086565b6000806000806002865111151561048557600080fd5b42925082604051808281526020019150506040518091039020600190049150600180548060010182816104b89190610600565b9160005260206000209060060201600060c0604051908101604052808681526020018a81526020018981526020013373ffffffffffffffffffffffffffffffffffffffff1681526020018781526020018b8152509091909150600082015181600001556020820151816001019080519060200190610537929190610632565b506040820151816002019080519060200190610554929190610632565b5060608201518160030160006101000a81548173ffffffffffffffffffffffffffffffffffffffff021916908373ffffffffffffffffffffffffffffffffffffffff1602179055506080820151816004015560a082015181600501555050905060018103600080848152602001908152602001600020819055508193505050509392505050565b60006020528060005260406000206000915090505481565b6000600180549050905090565b81548183558181151161062d5760060281600602836000526020600020918201910161062c91906106b2565b5b505050565b828054600181600116156101000203166002900490600052602060002090601f016020900481019282601f1061067357805160ff19168380011785556106a1565b828001600101855582156106a1579182015b828111156106a0578251825591602001919060010190610685565b5b5090506106ae9190610730565b5090565b61072d91905b80821115610729576000808201600090556001820160006106d99190610755565b6002820160006106e99190610755565b6003820160006101000a81549073ffffffffffffffffffffffffffffffffffffffff021916905560048201600090556005820160009055506006016106b8565b5090565b90565b61075291905b8082111561074e576000816000905550600101610736565b5090565b90565b50805460018160011615610100020316600290046000825580601f1061077b575061079a565b601f0160209004906000526020600020908101906107999190610730565b5b505600a165627a7a72305820ad6538d8b671d50740b514f4877de6a3620e0485d1e383cf882a260c3d7bc12e0029",
  "source": "pragma solidity ^0.4.17;\n\ncontract IPR {\n    struct Project {\n        uint projectId;\n        string name;\n        string desc;\n        address owner;\n        uint timestamp;\n        uint parentId;\n    }\n\n    mapping(uint => uint) public projectIdIndex;\n    Project[] public projects;\n\n    function getProjectsLength() public view returns (uint) {\n        return projects.length;\n    }\n\n    function saveProject(uint _parentId, string _name, string _desc) public returns (uint) {\n        require(bytes(_name).length > 2);\n        uint timestamp = now;\n        uint id = uint(keccak256(timestamp));\n        uint length = projects.push(Project({\n            timestamp : timestamp,\n            projectId : id,\n            parentId : _parentId,\n            name : _name,\n            desc : _desc,\n            owner : msg.sender\n            }));\n        projectIdIndex[id] = length - 1;\n        return id;\n    }\n}",
  "sourcePath": "D:\\ethereum\\IPR\\contracts\\IPR.sol",
  "compiler": {
    "name": "solc",
    "version": "0.4.21+commit.dfe3193c.Emscripten.clang"
  },
  "schemaVersion": "2.0.0",
  "updatedAt": "2018-04-15T05:03:15.953Z"
}