{
  "contractName": "IPR",
  "abi": [
    {
      "constant": true,
      "inputs": [
        {
          "name": "",
          "type": "uint256"
        }
      ],
      "name": "projects",
      "outputs": [
        {
          "name": "",
          "type": "address"
        }
      ],
      "payable": false,
      "stateMutability": "view",
      "type": "function"
    },
    {
      "constant": true,
      "inputs": [
        {
          "name": "",
          "type": "uint256"
        }
      ],
      "name": "users",
      "outputs": [
        {
          "name": "",
          "type": "address"
        }
      ],
      "payable": false,
      "stateMutability": "view",
      "type": "function"
    },
    {
      "constant": false,
      "inputs": [
        {
          "name": "projectId",
          "type": "uint256"
        }
      ],
      "name": "branch",
      "outputs": [
        {
          "name": "",
          "type": "uint256"
        }
      ],
      "payable": false,
      "stateMutability": "nonpayable",
      "type": "function"
    },
    {
      "constant": true,
      "inputs": [],
      "name": "getUsers",
      "outputs": [
        {
          "name": "",
          "type": "address[]"
        }
      ],
      "payable": false,
      "stateMutability": "view",
      "type": "function"
    },
    {
      "constant": true,
      "inputs": [],
      "name": "getProjects",
      "outputs": [
        {
          "name": "",
          "type": "address[]"
        }
      ],
      "payable": false,
      "stateMutability": "view",
      "type": "function"
    },
    {
      "constant": false,
      "inputs": [
        {
          "name": "project",
          "type": "address"
        }
      ],
      "name": "saveProject",
      "outputs": [
        {
          "name": "",
          "type": "uint256"
        }
      ],
      "payable": false,
      "stateMutability": "nonpayable",
      "type": "function"
    }
  ],
  "bytecode": "0x6060604052341561000f57600080fd5b6105ce8061001e6000396000f300606060405260043610610077576000357c0100000000000000000000000000000000000000000000000000000000900463ffffffff168062ce8e3e1461007c5780630bc3545b146100e6578063107046bd146101335780631c13c0f414610196578063365b98b2146101cd578063dcc6012814610230575b600080fd5b341561008757600080fd5b61008f61029a565b6040518080602001828103825283818151815260200191508051906020019060200280838360005b838110156100d25780820151818401526020810190506100b7565b505050509050019250505060405180910390f35b34156100f157600080fd5b61011d600480803573ffffffffffffffffffffffffffffffffffffffff1690602001909190505061032e565b6040518082815260200191505060405180910390f35b341561013e57600080fd5b6101546004808035906020019091905050610398565b604051808273ffffffffffffffffffffffffffffffffffffffff1673ffffffffffffffffffffffffffffffffffffffff16815260200191505060405180910390f35b34156101a157600080fd5b6101b760048080359060200190919050506103d7565b6040518082815260200191505060405180910390f35b34156101d857600080fd5b6101ee6004808035906020019091905050610456565b604051808273ffffffffffffffffffffffffffffffffffffffff1673ffffffffffffffffffffffffffffffffffffffff16815260200191505060405180910390f35b341561023b57600080fd5b610243610495565b6040518080602001828103825283818151815260200191508051906020019060200280838360005b8381101561028657808201518184015260208101905061026b565b505050509050019250505060405180910390f35b6102a2610529565b600180548060200260200160405190810160405280929190818152602001828054801561032457602002820191906000526020600020905b8160009054906101000a900473ffffffffffffffffffffffffffffffffffffffff1673ffffffffffffffffffffffffffffffffffffffff16815260200190600101908083116102da575b5050505050905090565b6000808054806001018281610343919061053d565b9160005260206000209001600084909190916101000a81548173ffffffffffffffffffffffffffffffffffffffff021916908373ffffffffffffffffffffffffffffffffffffffff1602179055509050919050565b6000818154811015156103a757fe5b90600052602060002090016000915054906101000a900473ffffffffffffffffffffffffffffffffffffffff1681565b60008082101580156103ea5750600f8211155b15156103f557600080fd5b3360018381548110151561040557fe5b906000526020600020900160006101000a81548173ffffffffffffffffffffffffffffffffffffffff021916908373ffffffffffffffffffffffffffffffffffffffff160217905550819050919050565b60018181548110151561046557fe5b90600052602060002090016000915054906101000a900473ffffffffffffffffffffffffffffffffffffffff1681565b61049d610569565b600080548060200260200160405190810160405280929190818152602001828054801561051f57602002820191906000526020600020905b8160009054906101000a900473ffffffffffffffffffffffffffffffffffffffff1673ffffffffffffffffffffffffffffffffffffffff16815260200190600101908083116104d5575b5050505050905090565b602060405190810160405280600081525090565b81548183558181151161056457818360005260206000209182019101610563919061057d565b5b505050565b602060405190810160405280600081525090565b61059f91905b8082111561059b576000816000905550600101610583565b5090565b905600a165627a7a72305820f4b7ffef8ada3ed05ac3f828beaeb0428408cfb8418ca7e06b7a64761471ffe00029",
  "source": "pragma solidity ^0.4.17;\r\n\r\nimport \"./Project.sol\";\r\n\r\ncontract IPR {\r\n    //    struct Project {\r\n    //        string name;\r\n    //        string desc;\r\n    //        uint32 timestamp;\r\n    //    }\r\n\r\n    Project[] public projects;\r\n    address[] public users;\r\n    // 分支\r\n    function branch(uint projectId) public returns (uint) {\r\n        require(projectId >= 0 && projectId <= 15);\r\n        users[projectId] = msg.sender;\r\n        return projectId;\r\n    }\r\n    // 返回用户\r\n    function getUsers() public view returns (address[]) {\r\n        return users;\r\n    }\r\n    // 返回项目列表\r\n    function getProjects() public view returns (Project[]) {\r\n        return projects;\r\n    }\r\n\r\n    function saveProject(Project project) public returns (uint) {\r\n        return projects.push(project);\r\n    }\r\n}",
  "sourcePath": "D:\\ethereum\\IPR\\contracts\\IPR.sol",
  "compiler": {
    "name": "solc",
    "version": "0.4.21+commit.dfe3193c.Emscripten.clang"
  },
  "schemaVersion": "2.0.0",
  "updatedAt": "2018-04-14T08:12:43.945Z"
}