{
  "contractName": "IPR",
  "abi": [
    {
      "constant": true,
      "inputs": [
        {
          "name": "",
          "type": "uint256"
        }
      ],
      "name": "projects",
      "outputs": [
        {
          "name": "projectId",
          "type": "uint256"
        },
        {
          "name": "name",
          "type": "string"
        },
        {
          "name": "desc",
          "type": "string"
        },
        {
          "name": "owner",
          "type": "address"
        },
        {
          "name": "timestamp",
          "type": "uint256"
        },
        {
          "name": "parentId",
          "type": "uint256"
        }
      ],
      "payable": false,
      "stateMutability": "view",
      "type": "function"
    },
    {
      "constant": false,
      "inputs": [
        {
          "name": "_parentId",
          "type": "uint256"
        },
        {
          "name": "_name",
          "type": "string"
        },
        {
          "name": "_desc",
          "type": "string"
        }
      ],
      "name": "saveProject",
      "outputs": [
        {
          "name": "",
          "type": "uint256"
        }
      ],
      "payable": false,
      "stateMutability": "nonpayable",
      "type": "function"
    }
  ],
  "bytecode": "0x6060604052341561000f57600080fd5b6105f38061001e6000396000f30060606040526004361061004c576000357c0100000000000000000000000000000000000000000000000000000000900463ffffffff168063107046bd14610051578063acda8898146101a1575b600080fd5b341561005c57600080fd5b610072600480803590602001909190505061025e565b6040518087815260200180602001806020018673ffffffffffffffffffffffffffffffffffffffff1673ffffffffffffffffffffffffffffffffffffffff168152602001858152602001848152602001838103835288818151815260200191508051906020019080838360005b838110156100fa5780820151818401526020810190506100df565b50505050905090810190601f1680156101275780820380516001836020036101000a031916815260200191505b50838103825287818151815260200191508051906020019080838360005b83811015610160578082015181840152602081019050610145565b50505050905090810190601f16801561018d5780820380516001836020036101000a031916815260200191505b509850505050505050505060405180910390f35b34156101ac57600080fd5b610248600480803590602001909190803590602001908201803590602001908080601f0160208091040260200160405190810160405280939291908181526020018383808284378201915050505050509190803590602001908201803590602001908080601f016020809104026020016040519081016040528093929190818152602001838380828437820191505050505050919050506103ea565b6040518082815260200191505060405180910390f35b6000602052806000526040600020600091509050806000015490806001018054600181600116156101000203166002900480601f0160208091040260200160405190810160405280929190818152602001828054600181600116156101000203166002900480156103105780601f106102e557610100808354040283529160200191610310565b820191906000526020600020905b8154815290600101906020018083116102f357829003601f168201915b505050505090806002018054600181600116156101000203166002900480601f0160208091040260200160405190810160405280929190818152602001828054600181600116156101000203166002900480156103ae5780601f10610383576101008083540402835291602001916103ae565b820191906000526020600020905b81548152906001019060200180831161039157829003601f168201915b5050505050908060030160009054906101000a900473ffffffffffffffffffffffffffffffffffffffff16908060040154908060050154905086565b6000806000600285511115156103ff57600080fd5b4291508160405180828152602001915050604051809103902060019004905060c0604051908101604052808281526020018681526020018581526020013373ffffffffffffffffffffffffffffffffffffffff1681526020018381526020018781525060008083815260200190815260200160002060008201518160000155602082015181600101908051906020019061049a929190610522565b5060408201518160020190805190602001906104b7929190610522565b5060608201518160030160006101000a81548173ffffffffffffffffffffffffffffffffffffffff021916908373ffffffffffffffffffffffffffffffffffffffff1602179055506080820151816004015560a0820151816005015590505080925050509392505050565b828054600181600116156101000203166002900490600052602060002090601f016020900481019282601f1061056357805160ff1916838001178555610591565b82800160010185558215610591579182015b82811115610590578251825591602001919060010190610575565b5b50905061059e91906105a2565b5090565b6105c491905b808211156105c05760008160009055506001016105a8565b5090565b905600a165627a7a72305820dfdda74561b080450efbb2c09ff56b4df35d2713306caec76d933e55ca5eb8e70029",
  "source": "pragma solidity ^0.4.17;\r\n\r\ncontract IPR {\r\n    struct Project {\r\n        uint projectId;\r\n        string name;\r\n        string desc;\r\n        address owner;\r\n        uint timestamp;\r\n        uint parentId;\r\n    }\r\n\r\n    mapping(uint => Project) public projects;\r\n\r\n    function saveProject(uint _parentId, string _name, string _desc) public returns (uint) {\r\n        require(bytes(_name).length > 2);\r\n        uint timestamp = now;\r\n        uint id = uint(keccak256(timestamp));\r\n        projects[id] = Project({\r\n            timestamp : timestamp,\r\n            projectId : id,\r\n            parentId : _parentId,\r\n            name : _name,\r\n            desc : _desc,\r\n            owner : msg.sender\r\n            });\r\n        return id;\r\n    }\r\n}",
  "sourcePath": "D:\\ethereum\\IPR\\contracts\\IPR.sol",
  "compiler": {
    "name": "solc",
    "version": "0.4.21+commit.dfe3193c.Emscripten.clang"
  },
  "schemaVersion": "2.0.0",
  "updatedAt": "2018-04-14T13:16:41.850Z"
}