{
  "contractName": "Project",
  "abi": [
    {
      "constant": true,
      "inputs": [],
      "name": "name",
      "outputs": [
        {
          "name": "",
          "type": "string"
        }
      ],
      "payable": false,
      "stateMutability": "view",
      "type": "function"
    },
    {
      "constant": true,
      "inputs": [],
      "name": "desc",
      "outputs": [
        {
          "name": "",
          "type": "string"
        }
      ],
      "payable": false,
      "stateMutability": "view",
      "type": "function"
    },
    {
      "inputs": [
        {
          "name": "_parentId",
          "type": "uint256"
        },
        {
          "name": "_name",
          "type": "string"
        },
        {
          "name": "_desc",
          "type": "string"
        }
      ],
      "payable": false,
      "stateMutability": "nonpayable",
      "type": "constructor"
    }
  ],
  "bytecode": "0x6060604052341561000f57600080fd5b60405161047d38038061047d833981016040528080519060200190919080518201919060200180518201919050506002825111151561004d57600080fd5b42600481905550600454604051808281526020019150506040518091039020600190046000819055508260058190555081600190805190602001906100939291906100f4565b5080600290805190602001906100aa9291906100f4565b5033600360006101000a81548173ffffffffffffffffffffffffffffffffffffffff021916908373ffffffffffffffffffffffffffffffffffffffff160217905550505050610199565b828054600181600116156101000203166002900490600052602060002090601f016020900481019282601f1061013557805160ff1916838001178555610163565b82800160010185558215610163579182015b82811115610162578251825591602001919060010190610147565b5b5090506101709190610174565b5090565b61019691905b8082111561019257600081600090555060010161017a565b5090565b90565b6102d5806101a86000396000f30060606040526004361061004c576000357c0100000000000000000000000000000000000000000000000000000000900463ffffffff16806306fdde031461005157806355f150f1146100df575b600080fd5b341561005c57600080fd5b61006461016d565b6040518080602001828103825283818151815260200191508051906020019080838360005b838110156100a4578082015181840152602081019050610089565b50505050905090810190601f1680156100d15780820380516001836020036101000a031916815260200191505b509250505060405180910390f35b34156100ea57600080fd5b6100f261020b565b6040518080602001828103825283818151815260200191508051906020019080838360005b83811015610132578082015181840152602081019050610117565b50505050905090810190601f16801561015f5780820380516001836020036101000a031916815260200191505b509250505060405180910390f35b60018054600181600116156101000203166002900480601f0160208091040260200160405190810160405280929190818152602001828054600181600116156101000203166002900480156102035780601f106101d857610100808354040283529160200191610203565b820191906000526020600020905b8154815290600101906020018083116101e657829003601f168201915b505050505081565b60028054600181600116156101000203166002900480601f0160208091040260200160405190810160405280929190818152602001828054600181600116156101000203166002900480156102a15780601f10610276576101008083540402835291602001916102a1565b820191906000526020600020905b81548152906001019060200180831161028457829003601f168201915b5050505050815600a165627a7a7230582029bcd8cd763aef1c07847d1b92b4800f854ddbc09f0ab5edc300af3e18b098eb0029",
  "source": "pragma solidity ^0.4.17;\r\n\r\ncontract Project {\r\n    uint projectId;\r\n    string public name;\r\n    string public desc;\r\n    address owner;\r\n    uint timestamp;\r\n    uint parentId;\r\n\r\n    function Project(uint _parentId, string _name, string _desc) public {\r\n        require(bytes(_name).length > 2);\r\n        timestamp = now;\r\n        projectId = uint(keccak256(timestamp));\r\n        parentId = _parentId;\r\n        name = _name;\r\n        desc = _desc;\r\n        owner = msg.sender;\r\n    }\r\n}",
  "sourcePath": "D:\\ethereum\\IPR\\contracts\\Project.sol",
  "compiler": {
    "name": "solc",
    "version": "0.4.21+commit.dfe3193c.Emscripten.clang"
  },
  "schemaVersion": "2.0.0",
  "updatedAt": "2018-04-14T08:12:43.946Z"
}